{"abi":[{"inputs":[],"stateMutability":"nonpayable","type":"constructor","name":"constructor"},{"inputs":[{"internalType":"bytes32","name":"oldPassword","type":"bytes32"},{"internalType":"bytes32","name":"newPassword","type":"bytes32"}],"name":"changePassword","outputs":[],"stateMutability":"nonpayable","type":"function"},{"inputs":[{"internalType":"bytes32","name":"password","type":"bytes32"}],"name":"createAccount","outputs":[],"stateMutability":"nonpayable","type":"function"},{"inputs":[{"internalType":"address","name":"_address","type":"address"},{"internalType":"bytes32","name":"password","type":"bytes32"}],"name":"createAccountFor","outputs":[],"stateMutability":"nonpayable","type":"function"},{"inputs":[{"internalType":"bytes32","name":"password","type":"bytes32"}],"name":"deposit","outputs":[],"stateMutability":"payable","type":"function"},{"inputs":[],"name":"getBalance","outputs":[{"internalType":"uint256","name":"","type":"uint256"}],"stateMutability":"view","type":"function"},{"inputs":[],"name":"show","outputs":[{"internalType":"enum Bank.Plan","name":"","type":"uint8"}],"stateMutability":"view","type":"function"},{"inputs":[{"internalType":"uint256","name":"level","type":"uint256"},{"internalType":"bytes32","name":"password","type":"bytes32"}],"name":"upgrade","outputs":[],"stateMutability":"payable","type":"function"},{"inputs":[{"internalType":"uint256","name":"amount","type":"uint256"},{"internalType":"bytes32","name":"password","type":"bytes32"}],"name":"withdraw","outputs":[],"stateMutability":"payable","type":"function"}],"bytecode":"608060405260001960055534801561001657600080fd5b5060007fa6eef7e35abe7026729641147f7915573c7e97b47efa546f5f6e3230263bcb4981905567016345785d8a00007fcc69885fda6bcc1a4ace058b4a62bf5e179ea78fd58a1ccd71c22cc9b688792f556706f05b59d3b200007fd9d16d34ffb15ba3a3d852f0d403e2ce1d691fb54de27ac87cd2f993f3ec330f55670de0b6b3a76400007f7dfe757ecd65cbd7922a9c0161e935dd7fdbcc0e999689c7d31633896b1fc60b819055600360208190527f3617319a054d772f909f7c479a2cebe5066e836a939412e32403c99029b92eff91909155674563918244f400007fa15bc60c955c405d20d9149c709e2460f1c2d9a497496a7f46004d1772c3054c55678ac7230489e800007fc3a24b0501bd2c13a7e57f2db4369ec4c223447539fc0724a9d55ac4a06ebd4d5560055491527fcbc4e5fb02c3d1de23a9f1e014b4d2ee5aeaea9505df5e855c9210bf472495af55610c2f806101786000396000f3fe60806040526004361061007b5760003560e01c8063a8d2021a1161004e578063a8d2021a146100fd578063b214faa514610110578063cc80f6f314610123578063fe8ca4af1461014557600080fd5b806312065fe0146100805780631b7abe93146100a8578063292785fc146100bd5780633fb3188a146100dd575b600080fd5b34801561008c57600080fd5b50610095610165565b6040519081526020015b60405180910390f35b6100bb6100b6366004610aac565b6101a9565b005b3480156100c957600080fd5b506100bb6100d8366004610aac565b610449565b3480156100e957600080fd5b506100bb6100f8366004610ace565b6104af565b6100bb61010b366004610aac565b6105bc565b6100bb61011e366004610b06565b6107bf565b34801561012f57600080fd5b5061013861099a565b60405161009f9190610b35565b34801561015157600080fd5b506100bb610160366004610b06565b6109d8565b600061017033610a8f565b6101955760405162461bcd60e51b815260040161018c90610b5d565b60405180910390fd5b503360009081526004602052604090205490565b6101b233610a8f565b6101ce5760405162461bcd60e51b815260040161018c90610b5d565b3360009081526020819052604090205481146101fc5760405162461bcd60e51b815260040161018c90610b8b565b6004821061023e5760405162461bcd60e51b815260206004820152600f60248201526e139bdd081d985b1a59081b195d995b608a1b604482015260640161018c565b3360009081526002602052604081205460ff169060018185600381111561026757610267610b1f565b600381111561027857610278610b1f565b600381111561028957610289610b1f565b8152602081019190915260400160002054905060038260038111156102b0576102b0610b1f565b141561030c5760405162461bcd60e51b815260206004820152602560248201527f596f752063616e6e6f74207570677261646520746869732e20546869732069736044820152641036b0bc1760d91b606482015260840161018c565b33600090815260026020526040902054849060ff16600381111561033257610332610b1f565b106103765760405162461bcd60e51b8152602060048201526014602482015273596f752063616e6e6f7420646f776e677261646560601b604482015260640161018c565b803410156103c65760405162461bcd60e51b815260206004820152601f60248201527f506c616e20707269636520686967686572207468616e207061796d656e742e00604482015260640161018c565b60006103d28234610bca565b90508460038111156103e6576103e6610b1f565b336000908152600260205260409020805460ff1916600183600381111561040f5761040f610b1f565b0217905550604051339082156108fc029083906000818181858888f19350505050158015610441573d6000803e3d6000fd5b505050505050565b61045233610a8f565b61046e5760405162461bcd60e51b815260040161018c90610b5d565b33600090815260208190526040902054821461049c5760405162461bcd60e51b815260040161018c90610b8b565b3360009081526020819052604090205550565b336104f35760405162461bcd60e51b815260206004820152601460248201527321b0b63610333937b690181030b2323932b9b99760611b604482015260640161018c565b6001600160a01b03821661053e5760405162461bcd60e51b815260206004820152601260248201527121b0b636103a3790181030b2323932b9b99760711b604482015260640161018c565b61054782610a8f565b1561058e5760405162461bcd60e51b815260206004820152601760248201527620b2323932b9b9903430b99030b71030b1b1b7bab73a1760491b604482015260640161018c565b6001600160a01b0391909116600090815260208181526040808320939093556002905220805460ff19169055565b6105c533610a8f565b6105e15760405162461bcd60e51b815260040161018c90610b5d565b33600090815260208190526040902054811461060f5760405162461bcd60e51b815260040161018c90610b8b565b346106505760405162461bcd60e51b8152602060048201526011602482015270043616e6e6f74207769746864726177203607c1b604482015260640161018c565b3360009081526002602052604081205460ff1690600381838281111561067857610678610b1f565b600381111561068957610689610b1f565b8152602001908152602001600020549050803411156106f85760405162461bcd60e51b815260206004820152602560248201527f43616e6e6f74207769746864726177206d6f7265207468616e20796f7572206c60448201526434b6b4ba1760d91b606482015260840161018c565b336000908152600460205260409020543411156107675760405162461bcd60e51b815260206004820152602760248201527f596f752063616e6e6f74207769746864726177206d6f7265207468616e20796f6044820152663a903430bb329760c91b606482015260840161018c565b604051339085156108fc029086906000818181858888f19350505050158015610794573d6000803e3d6000fd5b5033600090815260046020526040812080548692906107b4908490610bca565b909155505050505050565b6107c833610a8f565b6107e45760405162461bcd60e51b815260040161018c90610b5d565b3360009081526020819052604090205481146108125760405162461bcd60e51b815260040161018c90610b8b565b346108525760405162461bcd60e51b815260206004820152601060248201526f043616e6e6f74206465706f73697420360841b604482015260640161018c565b3360009081526002602052604081205460ff1690600381838281111561087a5761087a610b1f565b600381111561088b5761088b610b1f565b8152602001908152602001600020549050803411156108f85760405162461bcd60e51b8152602060048201526024808201527f43616e6e6f74206465706f736974206d6f7265207468616e20796f7572206c6960448201526336b4ba1760e11b606482015260840161018c565b336000908152600460205260409020548190610915903490610be1565b11156109715760405162461bcd60e51b815260206004820152602560248201527f596f752063616e6e6f742068617665206d6f7265207468616e20796f7572206c60448201526434b6b4ba1760d91b606482015260840161018c565b3360009081526004602052604081208054349290610990908490610be1565b9091555050505050565b60006109a533610a8f565b6109c15760405162461bcd60e51b815260040161018c90610b5d565b503360009081526002602052604090205460ff1690565b33610a1c5760405162461bcd60e51b815260206004820152601460248201527321b0b63610333937b690181030b2323932b9b99760611b604482015260640161018c565b610a2533610a8f565b15610a6c5760405162461bcd60e51b815260206004820152601760248201527620b2323932b9b9903430b99030b71030b1b1b7bab73a1760491b604482015260640161018c565b33600090815260208181526040808320939093556002905220805460ff19169055565b6001600160a01b0316600090815260208190526040902054151590565b60008060408385031215610abf57600080fd5b50508035926020909101359150565b60008060408385031215610ae157600080fd5b82356001600160a01b0381168114610af857600080fd5b946020939093013593505050565b600060208284031215610b1857600080fd5b5035919050565b634e487b7160e01b600052602160045260246000fd5b6020810160048310610b5757634e487b7160e01b600052602160045260246000fd5b91905290565b6020808252601490820152732737b716a0b1b1b7bab73a1030b2323932b9b99760611b604082015260600190565b6020808252600f908201526e2bb937b733903830b9b9bbb7b9321760891b604082015260600190565b634e487b7160e01b600052601160045260246000fd5b600082821015610bdc57610bdc610bb4565b500390565b60008219821115610bf457610bf4610bb4565b50019056fea264697066735822122067faea1ce7c3f669c6226e32231528d2593d7c92aa622f24f5b43f7bbdb7d7bf64736f6c634300080c0033","bytecodeSha1":"be0f02385c3e91c94a06ad2212c032d4663a5a14","compiler":{"evm_version":"istanbul","optimizer":{"enabled":true,"runs":200},"version":"0.8.12+commit.f00d7308"},"contractName":"Bank","language":"Solidity","natspec":{"author":"Anthony (fps) https://github.com/fps8k.","details":"The bank itself.       Like a typical bank, users deposit and their balances are       recorded against their addresses, but the ether is deposited       directly into the contract bank.       Withdrawals and Transfers cost some tax.       Deposits don't.","kind":"dev","methods":{"changePassword(bytes32,bytes32)":{"details":"Changes password from `oldPassword` to new `passWord`.       Old passwords must match."},"constructor":{"details":"Constructor sets the plan limits and the plan prices for the       deployment of the contract."},"createAccount(bytes32)":{"details":"Creates an account for the caller with password as `password`.       The password needs to be hashed off-chain for security.       This will also validate that the msg.sender has no accounts already.","params":{"password":"User's preferred password."}},"createAccountFor(address,bytes32)":{"details":"Creates an account for `_address` with password as `password`.       The password needs to be hashed off-chain for security.       This will also validate that the `_address` has no accounts already.","params":{"_address":"Address to open account for.","password":"User's preferred password."}},"deposit(bytes32)":{"details":"Deposits money into the bank."},"getBalance()":{"details":"Returns the balance of the caller.       Caller must have an account.","returns":{"_0":"uint256 caller's balance."}},"upgrade(uint256,bytes32)":{"details":"Upgrade plan to `level`."},"withdraw(uint256,bytes32)":{"details":"Withdraw money from the bank."}},"stateVariables":{"balances":{"details":"Mapping address to the amount of ether in their balance."},"passwords":{"details":"Mapping user addresses to their passwords."},"planLimits":{"details":"Mapping plans to their limits."},"planPrices":{"details":"Mapping the plans to their prices for upgrades."},"stretch":{"details":"Maximum ether."}},"title":"Bank Contract.","version":1},"opcodes":"PUSH1 0x80 PUSH1 0x40 MSTORE PUSH1 0x4 CALLDATASIZE LT PUSH2 0x7B JUMPI PUSH1 0x0 CALLDATALOAD PUSH1 0xE0 SHR DUP1 PUSH4 0xA8D2021A GT PUSH2 0x4E JUMPI DUP1 PUSH4 0xA8D2021A EQ PUSH2 0xFD JUMPI DUP1 PUSH4 0xB214FAA5 EQ PUSH2 0x110 JUMPI DUP1 PUSH4 0xCC80F6F3 EQ PUSH2 0x123 JUMPI DUP1 PUSH4 0xFE8CA4AF EQ PUSH2 0x145 JUMPI PUSH1 0x0 DUP1 REVERT JUMPDEST DUP1 PUSH4 0x12065FE0 EQ PUSH2 0x80 JUMPI DUP1 PUSH4 0x1B7ABE93 EQ PUSH2 0xA8 JUMPI DUP1 PUSH4 0x292785FC EQ PUSH2 0xBD JUMPI DUP1 PUSH4 0x3FB3188A EQ PUSH2 0xDD JUMPI JUMPDEST PUSH1 0x0 DUP1 REVERT JUMPDEST CALLVALUE DUP1 ISZERO PUSH2 0x8C JUMPI PUSH1 0x0 DUP1 REVERT JUMPDEST POP PUSH2 0x95 PUSH2 0x165 JUMP JUMPDEST PUSH1 0x40 MLOAD SWAP1 DUP2 MSTORE PUSH1 0x20 ADD JUMPDEST PUSH1 0x40 MLOAD DUP1 SWAP2 SUB SWAP1 RETURN JUMPDEST PUSH2 0xBB PUSH2 0xB6 CALLDATASIZE PUSH1 0x4 PUSH2 0xAAC JUMP JUMPDEST PUSH2 0x1A9 JUMP JUMPDEST STOP JUMPDEST CALLVALUE DUP1 ISZERO PUSH2 0xC9 JUMPI PUSH1 0x0 DUP1 REVERT JUMPDEST POP PUSH2 0xBB PUSH2 0xD8 CALLDATASIZE PUSH1 0x4 PUSH2 0xAAC JUMP JUMPDEST PUSH2 0x449 JUMP JUMPDEST CALLVALUE DUP1 ISZERO PUSH2 0xE9 JUMPI PUSH1 0x0 DUP1 REVERT JUMPDEST POP PUSH2 0xBB PUSH2 0xF8 CALLDATASIZE PUSH1 0x4 PUSH2 0xACE JUMP JUMPDEST PUSH2 0x4AF JUMP JUMPDEST PUSH2 0xBB PUSH2 0x10B CALLDATASIZE PUSH1 0x4 PUSH2 0xAAC JUMP JUMPDEST PUSH2 0x5BC JUMP JUMPDEST PUSH2 0xBB PUSH2 0x11E CALLDATASIZE PUSH1 0x4 PUSH2 0xB06 JUMP JUMPDEST PUSH2 0x7BF JUMP JUMPDEST CALLVALUE DUP1 ISZERO PUSH2 0x12F JUMPI PUSH1 0x0 DUP1 REVERT JUMPDEST POP PUSH2 0x138 PUSH2 0x99A JUMP JUMPDEST PUSH1 0x40 MLOAD PUSH2 0x9F SWAP2 SWAP1 PUSH2 0xB35 JUMP JUMPDEST CALLVALUE DUP1 ISZERO PUSH2 0x151 JUMPI PUSH1 0x0 DUP1 REVERT JUMPDEST POP PUSH2 0xBB PUSH2 0x160 CALLDATASIZE PUSH1 0x4 PUSH2 0xB06 JUMP JUMPDEST PUSH2 0x9D8 JUMP JUMPDEST PUSH1 0x0 PUSH2 0x170 CALLER PUSH2 0xA8F JUMP JUMPDEST PUSH2 0x195 JUMPI PUSH1 0x40 MLOAD PUSH3 0x461BCD PUSH1 0xE5 SHL DUP2 MSTORE PUSH1 0x4 ADD PUSH2 0x18C SWAP1 PUSH2 0xB5D JUMP JUMPDEST PUSH1 0x40 MLOAD DUP1 SWAP2 SUB SWAP1 REVERT JUMPDEST POP CALLER PUSH1 0x0 SWAP1 DUP2 MSTORE PUSH1 0x4 PUSH1 0x20 MSTORE PUSH1 0x40 SWAP1 KECCAK256 SLOAD SWAP1 JUMP JUMPDEST PUSH2 0x1B2 CALLER PUSH2 0xA8F JUMP JUMPDEST PUSH2 0x1CE JUMPI PUSH1 0x40 MLOAD PUSH3 0x461BCD PUSH1 0xE5 SHL DUP2 MSTORE PUSH1 0x4 ADD PUSH2 0x18C SWAP1 PUSH2 0xB5D JUMP JUMPDEST CALLER PUSH1 0x0 SWAP1 DUP2 MSTORE PUSH1 0x20 DUP2 SWAP1 MSTORE PUSH1 0x40 SWAP1 KECCAK256 SLOAD DUP2 EQ PUSH2 0x1FC JUMPI PUSH1 0x40 MLOAD PUSH3 0x461BCD PUSH1 0xE5 SHL DUP2 MSTORE PUSH1 0x4 ADD PUSH2 0x18C SWAP1 PUSH2 0xB8B JUMP JUMPDEST PUSH1 0x4 DUP3 LT PUSH2 0x23E JUMPI PUSH1 0x40 MLOAD PUSH3 0x461BCD PUSH1 0xE5 SHL DUP2 MSTORE PUSH1 0x20 PUSH1 0x4 DUP3 ADD MSTORE PUSH1 0xF PUSH1 0x24 DUP3 ADD MSTORE PUSH15 0x139BDD081D985B1A59081B195D995B PUSH1 0x8A SHL PUSH1 0x44 DUP3 ADD MSTORE PUSH1 0x64 ADD PUSH2 0x18C JUMP JUMPDEST CALLER PUSH1 0x0 SWAP1 DUP2 MSTORE PUSH1 0x2 PUSH1 0x20 MSTORE PUSH1 0x40 DUP2 KECCAK256 SLOAD PUSH1 0xFF AND SWAP1 PUSH1 0x1 DUP2 DUP6 PUSH1 0x3 DUP2 GT ISZERO PUSH2 0x267 JUMPI PUSH2 0x267 PUSH2 0xB1F JUMP JUMPDEST PUSH1 0x3 DUP2 GT ISZERO PUSH2 0x278 JUMPI PUSH2 0x278 PUSH2 0xB1F JUMP JUMPDEST PUSH1 0x3 DUP2 GT ISZERO PUSH2 0x289 JUMPI PUSH2 0x289 PUSH2 0xB1F JUMP JUMPDEST DUP2 MSTORE PUSH1 0x20 DUP2 ADD SWAP2 SWAP1 SWAP2 MSTORE PUSH1 0x40 ADD PUSH1 0x0 KECCAK256 SLOAD SWAP1 POP PUSH1 0x3 DUP3 PUSH1 0x3 DUP2 GT ISZERO PUSH2 0x2B0 JUMPI PUSH2 0x2B0 PUSH2 0xB1F JUMP JUMPDEST EQ ISZERO PUSH2 0x30C JUMPI PUSH1 0x40 MLOAD PUSH3 0x461BCD PUSH1 0xE5 SHL DUP2 MSTORE PUSH1 0x20 PUSH1 0x4 DUP3 ADD MSTORE PUSH1 0x25 PUSH1 0x24 DUP3 ADD MSTORE PUSH32 0x596F752063616E6E6F74207570677261646520746869732E2054686973206973 PUSH1 0x44 DUP3 ADD MSTORE PUSH5 0x1036B0BC17 PUSH1 0xD9 SHL PUSH1 0x64 DUP3 ADD MSTORE PUSH1 0x84 ADD PUSH2 0x18C JUMP JUMPDEST CALLER PUSH1 0x0 SWAP1 DUP2 MSTORE PUSH1 0x2 PUSH1 0x20 MSTORE PUSH1 0x40 SWAP1 KECCAK256 SLOAD DUP5 SWAP1 PUSH1 0xFF AND PUSH1 0x3 DUP2 GT ISZERO PUSH2 0x332 JUMPI PUSH2 0x332 PUSH2 0xB1F JUMP JUMPDEST LT PUSH2 0x376 JUMPI PUSH1 0x40 MLOAD PUSH3 0x461BCD PUSH1 0xE5 SHL DUP2 MSTORE PUSH1 0x20 PUSH1 0x4 DUP3 ADD MSTORE PUSH1 0x14 PUSH1 0x24 DUP3 ADD MSTORE PUSH20 0x596F752063616E6E6F7420646F776E6772616465 PUSH1 0x60 SHL PUSH1 0x44 DUP3 ADD MSTORE PUSH1 0x64 ADD PUSH2 0x18C JUMP JUMPDEST DUP1 CALLVALUE LT ISZERO PUSH2 0x3C6 JUMPI PUSH1 0x40 MLOAD PUSH3 0x461BCD PUSH1 0xE5 SHL DUP2 MSTORE PUSH1 0x20 PUSH1 0x4 DUP3 ADD MSTORE PUSH1 0x1F PUSH1 0x24 DUP3 ADD MSTORE PUSH32 0x506C616E20707269636520686967686572207468616E207061796D656E742E00 PUSH1 0x44 DUP3 ADD MSTORE PUSH1 0x64 ADD PUSH2 0x18C JUMP JUMPDEST PUSH1 0x0 PUSH2 0x3D2 DUP3 CALLVALUE PUSH2 0xBCA JUMP JUMPDEST SWAP1 POP DUP5 PUSH1 0x3 DUP2 GT ISZERO PUSH2 0x3E6 JUMPI PUSH2 0x3E6 PUSH2 0xB1F JUMP JUMPDEST CALLER PUSH1 0x0 SWAP1 DUP2 MSTORE PUSH1 0x2 PUSH1 0x20 MSTORE PUSH1 0x40 SWAP1 KECCAK256 DUP1 SLOAD PUSH1 0xFF NOT AND PUSH1 0x1 DUP4 PUSH1 0x3 DUP2 GT ISZERO PUSH2 0x40F JUMPI PUSH2 0x40F PUSH2 0xB1F JUMP JUMPDEST MUL OR SWAP1 SSTORE POP PUSH1 0x40 MLOAD CALLER SWAP1 DUP3 ISZERO PUSH2 0x8FC MUL SWAP1 DUP4 SWAP1 PUSH1 0x0 DUP2 DUP2 DUP2 DUP6 DUP9 DUP9 CALL SWAP4 POP POP POP POP ISZERO DUP1 ISZERO PUSH2 0x441 JUMPI RETURNDATASIZE PUSH1 0x0 DUP1 RETURNDATACOPY RETURNDATASIZE PUSH1 0x0 REVERT JUMPDEST POP POP POP POP POP POP JUMP JUMPDEST PUSH2 0x452 CALLER PUSH2 0xA8F JUMP JUMPDEST PUSH2 0x46E JUMPI PUSH1 0x40 MLOAD PUSH3 0x461BCD PUSH1 0xE5 SHL DUP2 MSTORE PUSH1 0x4 ADD PUSH2 0x18C SWAP1 PUSH2 0xB5D JUMP JUMPDEST CALLER PUSH1 0x0 SWAP1 DUP2 MSTORE PUSH1 0x20 DUP2 SWAP1 MSTORE PUSH1 0x40 SWAP1 KECCAK256 SLOAD DUP3 EQ PUSH2 0x49C JUMPI PUSH1 0x40 MLOAD PUSH3 0x461BCD PUSH1 0xE5 SHL DUP2 MSTORE PUSH1 0x4 ADD PUSH2 0x18C SWAP1 PUSH2 0xB8B JUMP JUMPDEST CALLER PUSH1 0x0 SWAP1 DUP2 MSTORE PUSH1 0x20 DUP2 SWAP1 MSTORE PUSH1 0x40 SWAP1 KECCAK256 SSTORE POP JUMP JUMPDEST CALLER PUSH2 0x4F3 JUMPI PUSH1 0x40 MLOAD PUSH3 0x461BCD PUSH1 0xE5 SHL DUP2 MSTORE PUSH1 0x20 PUSH1 0x4 DUP3 ADD MSTORE PUSH1 0x14 PUSH1 0x24 DUP3 ADD MSTORE PUSH20 0x21B0B63610333937B690181030B2323932B9B997 PUSH1 0x61 SHL PUSH1 0x44 DUP3 ADD MSTORE PUSH1 0x64 ADD PUSH2 0x18C JUMP JUMPDEST PUSH1 0x1 PUSH1 0x1 PUSH1 0xA0 SHL SUB DUP3 AND PUSH2 0x53E JUMPI PUSH1 0x40 MLOAD PUSH3 0x461BCD PUSH1 0xE5 SHL DUP2 MSTORE PUSH1 0x20 PUSH1 0x4 DUP3 ADD MSTORE PUSH1 0x12 PUSH1 0x24 DUP3 ADD MSTORE PUSH18 0x21B0B636103A3790181030B2323932B9B997 PUSH1 0x71 SHL PUSH1 0x44 DUP3 ADD MSTORE PUSH1 0x64 ADD PUSH2 0x18C JUMP JUMPDEST PUSH2 0x547 DUP3 PUSH2 0xA8F JUMP JUMPDEST ISZERO PUSH2 0x58E JUMPI PUSH1 0x40 MLOAD PUSH3 0x461BCD PUSH1 0xE5 SHL DUP2 MSTORE PUSH1 0x20 PUSH1 0x4 DUP3 ADD MSTORE PUSH1 0x17 PUSH1 0x24 DUP3 ADD MSTORE PUSH23 0x20B2323932B9B9903430B99030B71030B1B1B7BAB73A17 PUSH1 0x49 SHL PUSH1 0x44 DUP3 ADD MSTORE PUSH1 0x64 ADD PUSH2 0x18C JUMP JUMPDEST PUSH1 0x1 PUSH1 0x1 PUSH1 0xA0 SHL SUB SWAP2 SWAP1 SWAP2 AND PUSH1 0x0 SWAP1 DUP2 MSTORE PUSH1 0x20 DUP2 DUP2 MSTORE PUSH1 0x40 DUP1 DUP4 KECCAK256 SWAP4 SWAP1 SWAP4 SSTORE PUSH1 0x2 SWAP1 MSTORE KECCAK256 DUP1 SLOAD PUSH1 0xFF NOT AND SWAP1 SSTORE JUMP JUMPDEST PUSH2 0x5C5 CALLER PUSH2 0xA8F JUMP JUMPDEST PUSH2 0x5E1 JUMPI PUSH1 0x40 MLOAD PUSH3 0x461BCD PUSH1 0xE5 SHL DUP2 MSTORE PUSH1 0x4 ADD PUSH2 0x18C SWAP1 PUSH2 0xB5D JUMP JUMPDEST CALLER PUSH1 0x0 SWAP1 DUP2 MSTORE PUSH1 0x20 DUP2 SWAP1 MSTORE PUSH1 0x40 SWAP1 KECCAK256 SLOAD DUP2 EQ PUSH2 0x60F JUMPI PUSH1 0x40 MLOAD PUSH3 0x461BCD PUSH1 0xE5 SHL DUP2 MSTORE PUSH1 0x4 ADD PUSH2 0x18C SWAP1 PUSH2 0xB8B JUMP JUMPDEST CALLVALUE PUSH2 0x650 JUMPI PUSH1 0x40 MLOAD PUSH3 0x461BCD PUSH1 0xE5 SHL DUP2 MSTORE PUSH1 0x20 PUSH1 0x4 DUP3 ADD MSTORE PUSH1 0x11 PUSH1 0x24 DUP3 ADD MSTORE PUSH17 0x43616E6E6F74207769746864726177203 PUSH1 0x7C SHL PUSH1 0x44 DUP3 ADD MSTORE PUSH1 0x64 ADD PUSH2 0x18C JUMP JUMPDEST CALLER PUSH1 0x0 SWAP1 DUP2 MSTORE PUSH1 0x2 PUSH1 0x20 MSTORE PUSH1 0x40 DUP2 KECCAK256 SLOAD PUSH1 0xFF AND SWAP1 PUSH1 0x3 DUP2 DUP4 DUP3 DUP2 GT ISZERO PUSH2 0x678 JUMPI PUSH2 0x678 PUSH2 0xB1F JUMP JUMPDEST PUSH1 0x3 DUP2 GT ISZERO PUSH2 0x689 JUMPI PUSH2 0x689 PUSH2 0xB1F JUMP JUMPDEST DUP2 MSTORE PUSH1 0x20 ADD SWAP1 DUP2 MSTORE PUSH1 0x20 ADD PUSH1 0x0 KECCAK256 SLOAD SWAP1 POP DUP1 CALLVALUE GT ISZERO PUSH2 0x6F8 JUMPI PUSH1 0x40 MLOAD PUSH3 0x461BCD PUSH1 0xE5 SHL DUP2 MSTORE PUSH1 0x20 PUSH1 0x4 DUP3 ADD MSTORE PUSH1 0x25 PUSH1 0x24 DUP3 ADD MSTORE PUSH32 0x43616E6E6F74207769746864726177206D6F7265207468616E20796F7572206C PUSH1 0x44 DUP3 ADD MSTORE PUSH5 0x34B6B4BA17 PUSH1 0xD9 SHL PUSH1 0x64 DUP3 ADD MSTORE PUSH1 0x84 ADD PUSH2 0x18C JUMP JUMPDEST CALLER PUSH1 0x0 SWAP1 DUP2 MSTORE PUSH1 0x4 PUSH1 0x20 MSTORE PUSH1 0x40 SWAP1 KECCAK256 SLOAD CALLVALUE GT ISZERO PUSH2 0x767 JUMPI PUSH1 0x40 MLOAD PUSH3 0x461BCD PUSH1 0xE5 SHL DUP2 MSTORE PUSH1 0x20 PUSH1 0x4 DUP3 ADD MSTORE PUSH1 0x27 PUSH1 0x24 DUP3 ADD MSTORE PUSH32 0x596F752063616E6E6F74207769746864726177206D6F7265207468616E20796F PUSH1 0x44 DUP3 ADD MSTORE PUSH7 0x3A903430BB3297 PUSH1 0xC9 SHL PUSH1 0x64 DUP3 ADD MSTORE PUSH1 0x84 ADD PUSH2 0x18C JUMP JUMPDEST PUSH1 0x40 MLOAD CALLER SWAP1 DUP6 ISZERO PUSH2 0x8FC MUL SWAP1 DUP7 SWAP1 PUSH1 0x0 DUP2 DUP2 DUP2 DUP6 DUP9 DUP9 CALL SWAP4 POP POP POP POP ISZERO DUP1 ISZERO PUSH2 0x794 JUMPI RETURNDATASIZE PUSH1 0x0 DUP1 RETURNDATACOPY RETURNDATASIZE PUSH1 0x0 REVERT JUMPDEST POP CALLER PUSH1 0x0 SWAP1 DUP2 MSTORE PUSH1 0x4 PUSH1 0x20 MSTORE PUSH1 0x40 DUP2 KECCAK256 DUP1 SLOAD DUP7 SWAP3 SWAP1 PUSH2 0x7B4 SWAP1 DUP5 SWAP1 PUSH2 0xBCA JUMP JUMPDEST SWAP1 SWAP2 SSTORE POP POP POP POP POP POP JUMP JUMPDEST PUSH2 0x7C8 CALLER PUSH2 0xA8F JUMP JUMPDEST PUSH2 0x7E4 JUMPI PUSH1 0x40 MLOAD PUSH3 0x461BCD PUSH1 0xE5 SHL DUP2 MSTORE PUSH1 0x4 ADD PUSH2 0x18C SWAP1 PUSH2 0xB5D JUMP JUMPDEST CALLER PUSH1 0x0 SWAP1 DUP2 MSTORE PUSH1 0x20 DUP2 SWAP1 MSTORE PUSH1 0x40 SWAP1 KECCAK256 SLOAD DUP2 EQ PUSH2 0x812 JUMPI PUSH1 0x40 MLOAD PUSH3 0x461BCD PUSH1 0xE5 SHL DUP2 MSTORE PUSH1 0x4 ADD PUSH2 0x18C SWAP1 PUSH2 0xB8B JUMP JUMPDEST CALLVALUE PUSH2 0x852 JUMPI PUSH1 0x40 MLOAD PUSH3 0x461BCD PUSH1 0xE5 SHL DUP2 MSTORE PUSH1 0x20 PUSH1 0x4 DUP3 ADD MSTORE PUSH1 0x10 PUSH1 0x24 DUP3 ADD MSTORE PUSH16 0x43616E6E6F74206465706F736974203 PUSH1 0x84 SHL PUSH1 0x44 DUP3 ADD MSTORE PUSH1 0x64 ADD PUSH2 0x18C JUMP JUMPDEST CALLER PUSH1 0x0 SWAP1 DUP2 MSTORE PUSH1 0x2 PUSH1 0x20 MSTORE PUSH1 0x40 DUP2 KECCAK256 SLOAD PUSH1 0xFF AND SWAP1 PUSH1 0x3 DUP2 DUP4 DUP3 DUP2 GT ISZERO PUSH2 0x87A JUMPI PUSH2 0x87A PUSH2 0xB1F JUMP JUMPDEST PUSH1 0x3 DUP2 GT ISZERO PUSH2 0x88B JUMPI PUSH2 0x88B PUSH2 0xB1F JUMP JUMPDEST DUP2 MSTORE PUSH1 0x20 ADD SWAP1 DUP2 MSTORE PUSH1 0x20 ADD PUSH1 0x0 KECCAK256 SLOAD SWAP1 POP DUP1 CALLVALUE GT ISZERO PUSH2 0x8F8 JUMPI PUSH1 0x40 MLOAD PUSH3 0x461BCD PUSH1 0xE5 SHL DUP2 MSTORE PUSH1 0x20 PUSH1 0x4 DUP3 ADD MSTORE PUSH1 0x24 DUP1 DUP3 ADD MSTORE PUSH32 0x43616E6E6F74206465706F736974206D6F7265207468616E20796F7572206C69 PUSH1 0x44 DUP3 ADD MSTORE PUSH4 0x36B4BA17 PUSH1 0xE1 SHL PUSH1 0x64 DUP3 ADD MSTORE PUSH1 0x84 ADD PUSH2 0x18C JUMP JUMPDEST CALLER PUSH1 0x0 SWAP1 DUP2 MSTORE PUSH1 0x4 PUSH1 0x20 MSTORE PUSH1 0x40 SWAP1 KECCAK256 SLOAD DUP2 SWAP1 PUSH2 0x915 SWAP1 CALLVALUE SWAP1 PUSH2 0xBE1 JUMP JUMPDEST GT ISZERO PUSH2 0x971 JUMPI PUSH1 0x40 MLOAD PUSH3 0x461BCD PUSH1 0xE5 SHL DUP2 MSTORE PUSH1 0x20 PUSH1 0x4 DUP3 ADD MSTORE PUSH1 0x25 PUSH1 0x24 DUP3 ADD MSTORE PUSH32 0x596F752063616E6E6F742068617665206D6F7265207468616E20796F7572206C PUSH1 0x44 DUP3 ADD MSTORE PUSH5 0x34B6B4BA17 PUSH1 0xD9 SHL PUSH1 0x64 DUP3 ADD MSTORE PUSH1 0x84 ADD PUSH2 0x18C JUMP JUMPDEST CALLER PUSH1 0x0 SWAP1 DUP2 MSTORE PUSH1 0x4 PUSH1 0x20 MSTORE PUSH1 0x40 DUP2 KECCAK256 DUP1 SLOAD CALLVALUE SWAP3 SWAP1 PUSH2 0x990 SWAP1 DUP5 SWAP1 PUSH2 0xBE1 JUMP JUMPDEST SWAP1 SWAP2 SSTORE POP POP POP POP POP JUMP JUMPDEST PUSH1 0x0 PUSH2 0x9A5 CALLER PUSH2 0xA8F JUMP JUMPDEST PUSH2 0x9C1 JUMPI PUSH1 0x40 MLOAD PUSH3 0x461BCD PUSH1 0xE5 SHL DUP2 MSTORE PUSH1 0x4 ADD PUSH2 0x18C SWAP1 PUSH2 0xB5D JUMP JUMPDEST POP CALLER PUSH1 0x0 SWAP1 DUP2 MSTORE PUSH1 0x2 PUSH1 0x20 MSTORE PUSH1 0x40 SWAP1 KECCAK256 SLOAD PUSH1 0xFF AND SWAP1 JUMP JUMPDEST CALLER PUSH2 0xA1C JUMPI PUSH1 0x40 MLOAD PUSH3 0x461BCD PUSH1 0xE5 SHL DUP2 MSTORE PUSH1 0x20 PUSH1 0x4 DUP3 ADD MSTORE PUSH1 0x14 PUSH1 0x24 DUP3 ADD MSTORE PUSH20 0x21B0B63610333937B690181030B2323932B9B997 PUSH1 0x61 SHL PUSH1 0x44 DUP3 ADD MSTORE PUSH1 0x64 ADD PUSH2 0x18C JUMP JUMPDEST PUSH2 0xA25 CALLER PUSH2 0xA8F JUMP JUMPDEST ISZERO PUSH2 0xA6C JUMPI PUSH1 0x40 MLOAD PUSH3 0x461BCD PUSH1 0xE5 SHL DUP2 MSTORE PUSH1 0x20 PUSH1 0x4 DUP3 ADD MSTORE PUSH1 0x17 PUSH1 0x24 DUP3 ADD MSTORE PUSH23 0x20B2323932B9B9903430B99030B71030B1B1B7BAB73A17 PUSH1 0x49 SHL PUSH1 0x44 DUP3 ADD MSTORE PUSH1 0x64 ADD PUSH2 0x18C JUMP JUMPDEST CALLER PUSH1 0x0 SWAP1 DUP2 MSTORE PUSH1 0x20 DUP2 DUP2 MSTORE PUSH1 0x40 DUP1 DUP4 KECCAK256 SWAP4 SWAP1 SWAP4 SSTORE PUSH1 0x2 SWAP1 MSTORE KECCAK256 DUP1 SLOAD PUSH1 0xFF NOT AND SWAP1 SSTORE JUMP JUMPDEST PUSH1 0x1 PUSH1 0x1 PUSH1 0xA0 SHL SUB AND PUSH1 0x0 SWAP1 DUP2 MSTORE PUSH1 0x20 DUP2 SWAP1 MSTORE PUSH1 0x40 SWAP1 KECCAK256 SLOAD ISZERO ISZERO SWAP1 JUMP JUMPDEST PUSH1 0x0 DUP1 PUSH1 0x40 DUP4 DUP6 SUB SLT ISZERO PUSH2 0xABF JUMPI PUSH1 0x0 DUP1 REVERT JUMPDEST POP POP DUP1 CALLDATALOAD SWAP3 PUSH1 0x20 SWAP1 SWAP2 ADD CALLDATALOAD SWAP2 POP JUMP JUMPDEST PUSH1 0x0 DUP1 PUSH1 0x40 DUP4 DUP6 SUB SLT ISZERO PUSH2 0xAE1 JUMPI PUSH1 0x0 DUP1 REVERT JUMPDEST DUP3 CALLDATALOAD PUSH1 0x1 PUSH1 0x1 PUSH1 0xA0 SHL SUB DUP2 AND DUP2 EQ PUSH2 0xAF8 JUMPI PUSH1 0x0 DUP1 REVERT JUMPDEST SWAP5 PUSH1 0x20 SWAP4 SWAP1 SWAP4 ADD CALLDATALOAD SWAP4 POP POP POP JUMP JUMPDEST PUSH1 0x0 PUSH1 0x20 DUP3 DUP5 SUB SLT ISZERO PUSH2 0xB18 JUMPI PUSH1 0x0 DUP1 REVERT JUMPDEST POP CALLDATALOAD SWAP2 SWAP1 POP JUMP JUMPDEST PUSH4 0x4E487B71 PUSH1 0xE0 SHL PUSH1 0x0 MSTORE PUSH1 0x21 PUSH1 0x4 MSTORE PUSH1 0x24 PUSH1 0x0 REVERT JUMPDEST PUSH1 0x20 DUP2 ADD PUSH1 0x4 DUP4 LT PUSH2 0xB57 JUMPI PUSH4 0x4E487B71 PUSH1 0xE0 SHL PUSH1 0x0 MSTORE PUSH1 0x21 PUSH1 0x4 MSTORE PUSH1 0x24 PUSH1 0x0 REVERT JUMPDEST SWAP2 SWAP1 MSTORE SWAP1 JUMP JUMPDEST PUSH1 0x20 DUP1 DUP3 MSTORE PUSH1 0x14 SWAP1 DUP3 ADD MSTORE PUSH20 0x2737B716A0B1B1B7BAB73A1030B2323932B9B997 PUSH1 0x61 SHL PUSH1 0x40 DUP3 ADD MSTORE PUSH1 0x60 ADD SWAP1 JUMP JUMPDEST PUSH1 0x20 DUP1 DUP3 MSTORE PUSH1 0xF SWAP1 DUP3 ADD MSTORE PUSH15 0x2BB937B733903830B9B9BBB7B93217 PUSH1 0x89 SHL PUSH1 0x40 DUP3 ADD MSTORE PUSH1 0x60 ADD SWAP1 JUMP JUMPDEST PUSH4 0x4E487B71 PUSH1 0xE0 SHL PUSH1 0x0 MSTORE PUSH1 0x11 PUSH1 0x4 MSTORE PUSH1 0x24 PUSH1 0x0 REVERT JUMPDEST PUSH1 0x0 DUP3 DUP3 LT ISZERO PUSH2 0xBDC JUMPI PUSH2 0xBDC PUSH2 0xBB4 JUMP JUMPDEST POP SUB SWAP1 JUMP JUMPDEST PUSH1 0x0 DUP3 NOT DUP3 GT ISZERO PUSH2 0xBF4 JUMPI PUSH2 0xBF4 PUSH2 0xBB4 JUMP JUMPDEST POP ADD SWAP1 JUMP INVALID LOG2 PUSH5 0x6970667358 0x22 SLT KECCAK256 PUSH8 0xFAEA1CE7C3F669C6 0x22 PUSH15 0x32231528D2593D7C92AA622F24F5B4 EXTCODEHASH PUSH28 0xBDB7D7BF64736F6C634300080C003300000000000000000000000000 ","sha1":"80c0a5b4c8198941c22f4e577d1f9303c597d9af","source":"// SPDX-License-Identifier: GPL-3.0\npragma solidity ^0.8.0;\n\nimport \"./interfaces/IBank.sol\";\n\n/**\n* @title Bank Contract.\n* @author Anthony (fps) https://github.com/fps8k.\n* @dev  The bank itself.\n*       Like a typical bank, users deposit and their balances are\n*       recorded against their addresses, but the ether is deposited\n*       directly into the contract bank.\n*       Withdrawals and Transfers cost some tax.\n*       Deposits don't.\n*/\n\n\ncontract Bank {\n    /**\n    * @dev  Plans that controls the users deposits and withdrawals.\n    *       There are 4 of them, and as the user upgrades these plans,\n    *       there is an increase in the amounts he can deposit and\n    *       withdraw.\n    *       It is also worthy to note that these plans will be upgraded\n    *       one at a time, a Free user cannot move to Ultimate, but\n    *       first move to Basic, Pro, then Ultimate.\n    *       Ultimate has no limits.\n    */\n    enum Plan {\n        Free,\n        Basic,\n        Pro,\n        Ultimate\n    }\n\n    /// @dev Mapping user addresses to their passwords.\n    mapping(address => bytes32) private passwords;\n    /// @dev Mapping the plans to their prices for upgrades.\n    mapping(Plan => uint256) private planPrices;\n    mapping(address => Plan) private userPlan;\n    /// @dev Mapping plans to their limits.\n    mapping(Plan => uint256) private planLimits;\n    /// @dev Mapping address to the amount of ether in their balance.\n    mapping(address => uint256) private balances;\n    /// @dev Maximum ether.\n    uint private stretch = type(uint256).max;\n    // 0x48656c6c6f204272756e6f204d61727300000000000000000000000000000000\n    \n    /**\n    * @dev  Constructor sets the plan limits and the plan prices for the\n    *       deployment of the contract.\n    */\n    constructor() {\n        /// @dev Initialize the `planPrices`.\n        planPrices[Plan.Free] = 0;\n        planPrices[Plan.Basic] = 0.1 ether;\n        planPrices[Plan.Pro] = 0.5 ether;\n        planPrices[Plan.Ultimate] = 1 ether;\n\n        /// @dev Initialize the `planLimits`.\n        planLimits[Plan.Free] = 1 ether;\n        planLimits[Plan.Basic] = 5 ether;\n        planLimits[Plan.Pro] = 10 ether;\n        planLimits[Plan.Ultimate] = stretch;\n    }\n\n    /**\n    * @dev  Creates an account for the caller with password as `password`.\n    *       The password needs to be hashed off-chain for security.\n    *       This will also validate that the msg.sender has no accounts already.\n    *\n    * @param password User's preferred password.\n    */\n    function createAccount(bytes32 password) public {\n        /// @dev Ensure message sender is not a 0 address.\n        require(msg.sender != address(0), \"Call from 0 address.\");\n        /// @dev Ensure caller has no account yet.\n        require(!hasAccount(msg.sender), \"Address has an account.\");\n        /// @dev Ensure the password is indeed 32 in length.\n        require(password.length == 32, \"Invalid password hash.\");\n        /// @dev Create account.\n        passwords[msg.sender] = password;\n        userPlan[msg.sender] = Plan.Free;\n    }\n\n    /**\n    * @dev  Creates an account for `_address` with password as `password`.\n    *       The password needs to be hashed off-chain for security.\n    *       This will also validate that the `_address` has no accounts already.\n    *\n    * @param _address   Address to open account for.\n    * @param password   User's preferred password.\n    */\n    function createAccountFor(address _address, bytes32 password) public {\n        /// @dev Ensure message sender is not a 0 address.\n        require(msg.sender != address(0), \"Call from 0 address.\");\n        /// @dev Ensure address is not a 0 address.\n        require(_address != address(0), \"Call to 0 address.\");\n        /// @dev Ensure address has no account yet.\n        require(!hasAccount(_address), \"Address has an account.\");\n        /// @dev Ensure the password is indeed 32 in length.\n        require(password.length == 32, \"Invalid password hash.\");\n        /// @dev Create account.\n        passwords[_address] = password;\n        userPlan[_address] = Plan.Free;\n    }\n\n    /**\n    * @dev  Returns true if the address already owns an account.\n    *\n    * @param _address Address to check for.\n    *\n    * @return bool.\n    */\n    function hasAccount(address _address) private view returns(bool) {\n        /// @dev Returns true if the address has set a password already.\n        return passwords[_address] != bytes32(0);\n    }\n\n    /**\n    * @dev  Returns the balance of the caller.\n    *       Caller must have an account.\n    *\n    * @return uint256 caller's balance.\n    */\n    function getBalance() public view returns(uint256) {\n        require(hasAccount(msg.sender), \"Non-Account address.\");\n        return balances[msg.sender];\n    }\n\n    /**\n    * @dev  Changes password from `oldPassword` to new `passWord`.\n    *       Old passwords must match.\n    */\n    function changePassword(bytes32 oldPassword, bytes32 newPassword) public {\n        require(hasAccount(msg.sender), \"Non-Account address.\");\n        require(passwords[msg.sender] == oldPassword, \"Wrong password.\");\n        require(newPassword.length == 32, \"Invalid password length.\");\n        passwords[msg.sender] = newPassword;\n    }\n\n    /**\n    * @dev Deposits money into the bank.\n    */\n    function deposit(bytes32 password) public payable {\n        require(hasAccount(msg.sender), \"Non-Account address.\");\n        require(passwords[msg.sender] == password, \"Wrong password.\");\n        require(msg.value != 0, \"Cannot deposit 0\");\n\n        Plan usersPlan = userPlan[msg.sender];\n        uint userLimit = planLimits[usersPlan];\n\n        require(msg.value <= userLimit, \"Cannot deposit more than your limit.\");\n        require(balances[msg.sender] + msg.value <= userLimit, \"You cannot have more than your limit.\");\n\n        balances[msg.sender] += msg.value;\n    }\n\n    /**\n    * @dev Withdraw money from the bank.\n    */\n    function withdraw(uint256 amount, bytes32 password) public payable {\n        require(hasAccount(msg.sender), \"Non-Account address.\");\n        require(passwords[msg.sender] == password, \"Wrong password.\");\n        require(msg.value != 0, \"Cannot withdraw 0\");\n\n        Plan usersPlan = userPlan[msg.sender];\n        uint userLimit = planLimits[usersPlan];\n\n        require(msg.value <= userLimit, \"Cannot withdraw more than your limit.\");\n        require(balances[msg.sender] >= msg.value, \"You cannot withdraw more than you have.\");\n\n        payable(msg.sender).transfer(amount);\n        balances[msg.sender] -= amount;\n    }\n\n    /**\n    * @dev Upgrade plan to `level`.\n    */\n    function upgrade(uint256 level, bytes32 password) public payable {\n        require(hasAccount(msg.sender), \"Non-Account address.\");\n        require(passwords[msg.sender] == password, \"Wrong password.\");\n        require(level < 4, \"Not valid level\");\n        \n        Plan usersPlan = userPlan[msg.sender];\n        uint256 price = planPrices[Plan(level)];\n\n        require(usersPlan != Plan.Ultimate, \"You cannot upgrade this. This is max.\");\n        require(uint256(userPlan[msg.sender]) < level, \"You cannot downgrade\");\n\n        require(msg.value >= price, \"Plan price higher than payment.\");\n\n        uint256 balance = msg.value - price;\n\n        userPlan[msg.sender] = Plan(level);\n        payable(msg.sender).transfer(balance);\n    }\n\n    function show() public view returns(Plan) {\n        require(hasAccount(msg.sender), \"Non-Account address.\");\n        return userPlan[msg.sender];\n    }\n}\n","sourcePath":"contracts/Bank.sol","type":"contract","deployment":{"address":"0x681d5b2db3D49135a1024850a64cf4566C7Ed532","chainid":"4","blockHeight":10943951}}